:1000000009C01AC018C017C016C015C014C013C04C
:1000100012C011C011241FBECFE9CDBF10E0A0E671
:10002000B0E0EEE8F0E002C005900D92A636B10710
:10003000D9F71BD02AC0E4CF1F920F920FB60F92B0
:1000400011248F93EF93FF9318BAB19BFECFE2B7C1
:10005000F0E0E05AFF4F808188BBFF91EF918F91D4
:100060000F900FBE0F901F9018958DE187BB82E017
:1000700088BB8FBD85E086BF12BE81E083BF15BE01
:0E00800080E48BBF78940000FECFF894FFCF91
:06008E000306070E0F1E21
:00000001FF
