S00E00006B6F73746B612E7372656389
S113000009C01AC018C017C016C015C014C013C048
S113001012C011C011241FBECFE9CDBF10E0A0E66D
S1130020B0E0E2EFF0E002C005900D92AA36B1070D
S1130030D9F74DD05CC0E4CF1F920F920FB60F9248
S113004011242F933F934F938F939F93EF93FF9399
S1130050F89482E088BB27E03BE043E1B19913C008
S113006028BB8CE291E000000197E9F738BB8CE2F1
S113007091E000000197E9F748BB8CE291E00000B1
S11300800197E9F7EBCFE2B7F0E0E05AFF4F908138
S113009083E042E048BB2CE231E00000215031090A
S11300A0E1F798BB2CE231E0000021503109E1F77F
S11300B0815081F77894FF91EF919F918F914F91A7
S11300C03F912F910F900FBE0F901F9018958DE1C7
S11300D087BB82E088BB8FBD85E086BF12BE81E00E
S11300E083BF15BE80E48BBF78940000FECFF894E4
S10500F0FFCF3C
S10D00F20306070E0F1E070B130090
S9030000FC
